{
    "contractName": "UserManager",
    "abi": [
        {
            "inputs": [],
            "stateMutability": "nonpayable",
            "type": "constructor"
        },
        {
            "inputs": [
                {
                    "internalType": "address",
                    "name": "owner",
                    "type": "address"
                }
            ],
            "name": "OwnableInvalidOwner",
            "type": "error"
        },
        {
            "inputs": [
                {
                    "internalType": "address",
                    "name": "account",
                    "type": "address"
                }
            ],
            "name": "OwnableUnauthorizedAccount",
            "type": "error"
        },
        {
            "anonymous": false,
            "inputs": [
                {
                    "indexed": true,
                    "internalType": "address",
                    "name": "user",
                    "type": "address"
                },
                {
                    "indexed": false,
                    "internalType": "bool",
                    "name": "canMint",
                    "type": "bool"
                }
            ],
            "name": "MintPermissionUpdated",
            "type": "event"
        },
        {
            "anonymous": false,
            "inputs": [
                {
                    "indexed": true,
                    "internalType": "address",
                    "name": "previousOwner",
                    "type": "address"
                },
                {
                    "indexed": true,
                    "internalType": "address",
                    "name": "newOwner",
                    "type": "address"
                }
            ],
            "name": "OwnershipTransferred",
            "type": "event"
        },
        {
            "anonymous": false,
            "inputs": [
                {
                    "indexed": true,
                    "internalType": "address",
                    "name": "user",
                    "type": "address"
                }
            ],
            "name": "UserRegistered",
            "type": "event"
        },
        {
            "inputs": [
                {
                    "internalType": "address",
                    "name": "user",
                    "type": "address"
                }
            ],
            "name": "getLastMintTime",
            "outputs": [
                {
                    "internalType": "uint256",
                    "name": "",
                    "type": "uint256"
                }
            ],
            "stateMutability": "view",
            "type": "function"
        },
        {
            "inputs": [
                {
                    "internalType": "address",
                    "name": "user",
                    "type": "address"
                }
            ],
            "name": "isUserRegistered",
            "outputs": [
                {
                    "internalType": "bool",
                    "name": "",
                    "type": "bool"
                }
            ],
            "stateMutability": "view",
            "type": "function"
        },
        {
            "inputs": [],
            "name": "ldrToken",
            "outputs": [
                {
                    "internalType": "contract ILDRToken",
                    "name": "",
                    "type": "address"
                }
            ],
            "stateMutability": "view",
            "type": "function"
        },
        {
            "inputs": [],
            "name": "owner",
            "outputs": [
                {
                    "internalType": "address",
                    "name": "",
                    "type": "address"
                }
            ],
            "stateMutability": "view",
            "type": "function"
        },
        {
            "inputs": [
                {
                    "internalType": "address",
                    "name": "user",
                    "type": "address"
                }
            ],
            "name": "registerUser",
            "outputs": [],
            "stateMutability": "nonpayable",
            "type": "function"
        },
        {
            "inputs": [],
            "name": "renounceOwnership",
            "outputs": [],
            "stateMutability": "nonpayable",
            "type": "function"
        },
        {
            "inputs": [
                {
                    "internalType": "address",
                    "name": "user",
                    "type": "address"
                }
            ],
            "name": "resetLastMintTime",
            "outputs": [],
            "stateMutability": "nonpayable",
            "type": "function"
        },
        {
            "inputs": [
                {
                    "internalType": "address",
                    "name": "tokenContract",
                    "type": "address"
                }
            ],
            "name": "setLDRTokenContract",
            "outputs": [],
            "stateMutability": "nonpayable",
            "type": "function"
        },
        {
            "inputs": [
                {
                    "internalType": "address",
                    "name": "newOwner",
                    "type": "address"
                }
            ],
            "name": "transferOwnership",
            "outputs": [],
            "stateMutability": "nonpayable",
            "type": "function"
        },
        {
            "inputs": [
                {
                    "internalType": "address",
                    "name": "user",
                    "type": "address"
                }
            ],
            "name": "updateLastMintTime",
            "outputs": [],
            "stateMutability": "nonpayable",
            "type": "function"
        }
    ],
    "bytecode": "608080604052346071573315605e575f8054336001600160a01b0319821681178355916001600160a01b03909116907f8be0079c531659141344cd1fd0a4f28419497f9722a3daafe3b4186f6b6457e09080a361060790816100768239f35b631e4fbdf760e01b5f525f60045260245ffd5b5f80fdfe60806040526004361015610011575f80fd5b5f3560e01c806304da26481461047457806305e02100146103f1578063163f7522146103b05780632199d5cd146102a6578063715018a61461024f5780638da5cb5b14610228578063abe0454a14610200578063bbcd5bbe1461016b578063c6a5679b146101145763f2fde38b14610087575f80fd5b34610110576020366003190112610110576004356001600160a01b03811690819003610110576100b56105ab565b80156100fd575f80546001600160a01b03198116831782556001600160a01b0316907f8be0079c531659141344cd1fd0a4f28419497f9722a3daafe3b4186f6b6457e09080a3005b631e4fbdf760e01b5f525f60045260245ffd5b5f80fd5b34610110576020366003190112610110576004356001600160a01b0381169081900361011057805f52600160205261015260ff60405f205416610569565b5f5260016020526020600160405f200154604051908152f35b34610110576020366003190112610110576004356001600160a01b03811690819003610110576101996105ab565b80156101bb576bffffffffffffffffffffffff60a01b60025416176002555f80f35b60405162461bcd60e51b815260206004820152601e60248201527f496e76616c696420746f6b656e20636f6e7472616374206164647265737300006044820152606490fd5b34610110575f366003190112610110576002546040516001600160a01b039091168152602090f35b34610110575f366003190112610110575f546040516001600160a01b039091168152602090f35b34610110575f366003190112610110576102676105ab565b5f80546001600160a01b0319811682556001600160a01b03167f8be0079c531659141344cd1fd0a4f28419497f9722a3daafe3b4186f6b6457e08280a3005b34610110576020366003190112610110576004356001600160a01b03811690819003610110576102d46105ab565b805f52600160205260ff60405f20541661036b576040516040810181811067ffffffffffffffff82111761035757604052600181526001602082015f8152835f528160205260405f209251151560ff80198554169116178355519101557f54db7a5cb4735e1aac1f53db512d3390390bb6637bd30ad4bf9fc98667d9b9b95f80a2005b634e487b7160e01b5f52604160045260245ffd5b60405162461bcd60e51b815260206004820152601760248201527f5573657220616c726561647920726567697374657265640000000000000000006044820152606490fd5b34610110576020366003190112610110576004356001600160a01b03811690819003610110575f526001602052602060ff60405f2054166040519015158152f35b34610110576020366003190112610110576004356001600160a01b03811690819003610110575f546001600160a01b031633148015610460575b610434906104f7565b805f52600160205261044c60ff60405f205416610569565b5f5260016020525f60016040822001555f80f35b506002546001600160a01b0316331461042b565b34610110576020366003190112610110576004356001600160a01b03811690819003610110575f546001600160a01b0316331480156104e3575b6104b7906104f7565b805f5260016020526104cf60ff60405f205416610569565b5f52600160205242600160405f2001555f80f35b506002546001600160a01b031633146104ae565b156104fe57565b60405162461bcd60e51b815260206004820152603a60248201527f557365724d616e616765723a2043616c6c6572206973206e6f7420746865206f60448201527f776e6572206f722074686520746f6b656e20636f6e74726163740000000000006064820152608490fd5b1561057057565b60405162461bcd60e51b8152602060048201526013602482015272155cd95c881b9bdd081c9959da5cdd195c9959606a1b6044820152606490fd5b5f546001600160a01b031633036105be57565b63118cdaa760e01b5f523360045260245ffdfea26469706673582212202e6ac073c2b191f4c4e0b6bb1ed301d4167b1d8011716622069498720b888fab64736f6c634300081b0033",
    "sourcePath": "d:/Alex/Alyra/Projet-final/backend/contracts/UserManager.sol",
    "compiler": {
        "name": "solc",
        "version": "0.8.27+commit.40a35a09"
    },
    "functionHashes": {
        "getLastMintTime(address)": "c6a5679b",
        "isUserRegistered(address)": "163f7522",
        "ldrToken()": "abe0454a",
        "owner()": "8da5cb5b",
        "registerUser(address)": "2199d5cd",
        "renounceOwnership()": "715018a6",
        "resetLastMintTime(address)": "05e02100",
        "setLDRTokenContract(address)": "bbcd5bbe",
        "transferOwnership(address)": "f2fde38b",
        "updateLastMintTime(address)": "04da2648"
    },
    "gasEstimates": {
        "creation": {
            "codeDepositCost": "308600",
            "executionCost": "26153",
            "totalCost": "334753"
        },
        "external": {
            "getLastMintTime(address)": "4751",
            "isUserRegistered(address)": "2415",
            "ldrToken()": "2404",
            "owner()": "2381",
            "registerUser(address)": "35123",
            "renounceOwnership()": "28130",
            "resetLastMintTime(address)": "11809",
            "setLDRTokenContract(address)": "26735",
            "transferOwnership(address)": "28318",
            "updateLastMintTime(address)": "28886"
        }
    }
}